:020000040000fa
:080000000001040000000000f3
:020000040000fa
:040008003a030000b7
:020000040000fa
:04000c007c03000071
:020000040000fa
:04001000bc0300002d
:020000040000fa
:040014005a0300008b
:020000040000fa
:040018009c03000045
:020000040000fa
:04001c00fc030000e1
:020000040000fa
:04002000dc030000fd
:020000040000fa
:04002400fc030000d9
:020000040000fa
:04002800fc030000d5
:020000040000fa
:04002c00fc030000d1
:020000040000fa
:04003000fc030000cd
:020000040000fa
:040034006202000064
:020000040000fa
:04003800fc030000c5
:020000040000fa
:04003c00fc030000c1
:020000040000fa
:04004000fc030000bd
:020000040000fa
:040044002c0200008a
:020000040000fa
:04004800ce020000e4
:020000040000fa
:04004c00fc030000b1
:020000040000fa
:04005000fc030000ad
:020000040000fa
:04005400fc030000a9
:020000040000fa
:04005800fc030000a5
:020000040000fa
:04005c00fc030000a1
:020000040000fa
:04006000fc0300009d
:020000040000fa
:04006400fc03000099
:020000040000fa
:04006800fc03000095
:020000040000fa
:04006c00fc03000091
:020000040000fa
:04007000fc0300008d
:020000040000fa
:04007400fc03000089
:020000040000fa
:04007800fc03000085
:020000040000fa
:04007c00fc03000081
:020000040000fa
:04008000fc0300007d
:020000040000fa
:04008400fc03000079
:020000040000fa
:04008800fc03000075
:020000040000fa
:04008c00fc03000071
:020000040000fa
:04009000fc0300006d
:020000040000fa
:0400940098020000ce
:020000040000fa
:04009800040300005d
:020000040000fa
:04009c00fc03000061
:020000040000fa
:0400a000fc0300005d
:020000040000fa
:0400a400fc03000059
:020000040000fa
:0400a800fc03000055
:020000040000fa
:0400ac00fc03000051
:020000040000fa
:0400b000fc0300004d
:020000040000fa
:0400b400fc03000049
:020000040000fa
:0400b800fc03000045
:020000040000fa
:0400bc00fc03000041
:020000040000fa
:0400c000fc0300003d
:020000040000fa
:0400c400fc03000039
:020000040000fa
:0400c800fc03000035
:020000040000fa
:0400cc00fc03000031
:020000040000fa
:0400d000fc0300002d
:020000040000fa
:0400d400fc03000029
:020000040000fa
:0400d800fc03000025
:020000040000fa
:0400dc00fc03000021
:020000040000fa
:0400e000fc0300001d
:020000040000fa
:0400e400fc03000019
:020000040000fa
:0400e800fc03000015
:020000040000fa
:0400ec00fc03000011
:020000040000fa
:0400f000fc0300000d
:020000040000fa
:0400f400fc03000009
:020000040000fa
:0400f800fc03000005
:020000040000fa
:0400fc00fc03000001
:020000040000fa
:04010000fc030000fc
:020000040000fa
:04010400fc030000f8
:020000040000fa
:04010800fc030000f4
:020000040000fa
:04010c00fc030000f0
:020000040000fa
:04011000fc030000ec
:020000040000fa
:04011400fc030000e8
:020000040000fa
:04011800fc030000e4
:020000040000fa
:04011c00fc030000e0
:020000040000fa
:04012000fc030000dc
:020000040000fa
:04012400fc030000d8
:020000040000fa
:04012800fc030000d4
:020000040000fa
:04012c00fc030000d0
:020000040000fa
:04013000fc030000cc
:020000040000fa
:04013400fc030000c8
:020000040000fa
:04013800fc030000c4
:020000040000fa
:04013c00fc030000c0
:020000040000fa
:04014000fc030000bc
:020000040000fa
:04014400fc030000b8
:020000040000fa
:04014800fc030000b4
:020000040000fa
:04014c00fc030000b0
:020000040000fa
:04015000fc030000ac
:020000040000fa
:04015400fc030000a8
:020000040000fa
:04015800fc030000a4
:020000040000fa
:04015c00fc030000a0
:020000040000fa
:04016000fc0300009c
:020000040000fa
:04016400fc03000098
:020000040000fa
:04016800fc03000094
:020000040000fa
:04016c00fc03000090
:020000040000fa
:04017000fc0300008c
:020000040000fa
:04017400fc03000088
:020000040000fa
:04017800fc03000084
:020000040000fa
:04017c00fc03000080
:020000040000fa
:04018000fc0300007c
:020000040000fa
:04018400fc03000078
:020000040000fa
:04018800fc03000074
:020000040000fa
:04018c00fc03000070
:020000040000fa
:04019000fc0300006c
:020000040000fa
:04019400fc03000068
:020000040000fa
:04019800fc03000064
:020000040000fa
:04019c00fc03000060
:020000040000fa
:0401a000fc0300005c
:020000040000fa
:0401a400fc03000058
:020000040000fa
:0401a800fc03000054
:020000040000fa
:0401ac00fc03000050
:020000040000fa
:0401b000fc0300004c
:020000040000fa
:0401b400fc03000048
:020000040000fa
:0401b800fc03000044
:020000040000fa
:0401bc00fc03000040
:020000040000fa
:0401c000fc0300003c
:020000040000fa
:0401c400fc03000038
:020000040000fa
:0401c800fc03000034
:020000040000fa
:0401cc00fc03000030
:020000040000fa
:0401d000fc0300002c
:020000040000fa
:0401d400fc03000028
:020000040000fa
:0401d800fc03000024
:020000040000fa
:0401dc00fc03000020
:020000040000fa
:0401e000fc0300001c
:020000040000fa
:0401e400fc03000018
:020000040000fa
:0401e800fc03000014
:020000040000fa
:0401ec00fc03000010
:020000040000fa
:0401f000fc0300000c
:020000040000fa
:0401f400fc03000008
:020000040000fa
:0401f800fc03000004
:020000040000fa
:0401fc00fc03000000
:020000040000fa
:100200006f8320000eff27000e0188000000000011
:10021000000020000000e000020032000001200089
:100220002002880014000700750107000000e000ac
:1002300003003a00008f2000010020000200370078
:100240000000200001002000810f7000010032003a
:1002500014000700000020000000e000020032004f
:1002600000000200000000002e0802000000000054
:100270000040da000000fe004440a90020002000f9
:100280000000e00003003200100020009001880010
:100290004440a800000006008a1f78008b1f7800e9
:1002a00000000600a1028800800478000000eb0036
:1002b0001f003700e284440054a0b4009905ba003e
:1002c000e284440054a0b4009906ba00e2844400d9
:1002d00054a0b4000006eb00476fde00fd07b2003b
:1002e000ae018800636ce10003003a00eaff0700fa
:1002f0000000eb000e003700606ce10008003a00df
:10030000004deb000a05e800020039003420ec0043
:100310000af0a0008b05e900f9ff3e000400370059
:100320006168e100010032000086eb000b0007006d
:1003300019c7ba001905ba000e04e00003003a001c
:100340000a00e000dbff3a0000000600fe07b200f2
:10035000ae0288008a047800f5ff37000cd0a300b5
:10036000e20f4d001c00390089027800354dba00bb
:100370000a05e800020039003420ec000af0a00071
:100380008b05e9000f003200254dba000a05e80090
:10039000020039003420ec000af0a0008b05e900cf
:1003a000080032000c00e0000600320015cdba0053
:1003b0000a05e800020039003420ec000af0a00031
:1003c0008b05e9008984e80054a0b4000b00e0002c
:1003d000e2ff3a00000006009902ba00055d7800cd
:1003e0008b05e900f7ff3200c82ade00055d7800c2
:1003f0008b05e900f3ff32000c00e000f1ff320052
:1004000019ddba00eeff37005a04040000000000b6
:100410001205040000000000ca05040000000000ee
:1004200082060400000000003a07040000000000fb
:100430009a07040000000000b80704000000000054
:10044000d607040000000000f407040000000000cc
:1004500010080400000000003600f800809fbe0075
:10046000829fbe00849fbe00869fbe000000fa00ef
:10047000004080000000e0000200320000408000e8
:1004800000000100d0822000104078008040e80089
:10049000d082200001487800c082200011c0b30043
:1004a0000148780088e0a9000080fa004f03be00f0
:1004b0004f02be004f01be004f00be003600f900e3
:1004c000004006003600f800809fbe00829fbe00fc
:1004d000849fbe00869fbe000000fa00104080008e
:1004e0000000e00002003200104080000000010027
:1004f000f0822000104078008040e800f082200068
:1005000001487800e082200011c0b3000148780063
:100510008860a9000080fa004f03be004f02be00b1
:100520004f01be004f00be003600f900004006003b
:100530003600f800809fbe00829fbe00849fbe00f0
:10054000869fbe000000fa00204080000000e0000e
:1005500002003200204080000000010010832000d3
:10056000104078008040e8001083200001487800a7
:100570000083200011c0b300014878008b60a900ff
:100580000080fa004f03be004f02be004f01be00c4
:100590004f00be003600f900004006003600f800ab
:1005a000809fbe00829fbe00849fbe00869fbe00cb
:1005b0000000fa00304080000000e000020032003d
:1005c000304080000000010030832000104078009f
:1005d0008040e8003083200001487800208320001c
:1005e00011c0b300014878008900a9000080fa001a
:1005f0004f03be004f02be004f01be004f00be00c1
:100600003600f900004006003600f800809fbe006a
:10061000829fbe00849fbe00869fbe000000fa003d
:10062000404080000000e0000200320040408000b6
:100630000000010050832000104078008040e80056
:1006400050832000014878004083200011c0b3008f
:10065000014878008b80a9000080fa004f03be009b
:100660004f02be004f01be004f00be003600f90031
:10067000004006003600f800809fbe00829fbe004a
:10068000849fbe00869fbe000000fa008020a90063
:100690000000eb00330307000080fa004f03be00a8
:1006a0004f02be004f01be004f00be003600f900f1
:1006b000004006003600f800809fbe00829fbe000a
:1006c000849fbe00869fbe000000fa002a03070038
:1006d0008040a90010002000220307000080fa00db
:1006e0004f03be004f02be004f01be004f00be00d0
:1006f0003600f900004006003600f800809fbe007a
:10070000829fbe00849fbe00869fbe000000fa004c
:100710008060a90020002000120307000080fa007a
:100720004f03be004f02be004f01be004f00be008f
:100730003600f900004006003600f800809fbe0039
:10074000829fbe00849fbe00869fbe000000fa000c
:100750008080a90030002000020307000080fa001a
:100760004f03be004f02be004f01be004f00be004f
:100770003600f900004006003600f800809fbe00f9
:10078000829fbe00849fbe00869fbe000000fa00cc
:100790008600a90070002000f20207000080fa0025
:1007a0004f03be004f02be004f01be004f00be000f
:1007b0003600f900004006003600f800809fbe00b9
:1007c000829fbe00849fbe00869fbe000000fa008c
:1007d00085e0a90080002000e20207000080fa0006
:1007e0004f03be004f02be004f01be004f00be00cf
:1007f0003600f900004006000040da000000fe006c
:0408000000000500ef
:020000040000fa
:100804000000fa009621ef0030422f00e00c88002f
:1008140000022800000d8800004080000000e00075
:1008240002003a00a04520002400070088e0a90047
:1008340098e0a800c08220008040eb0001487800c6
:100844000080fa00000006000200fa00000f7800a1
:100854009e007800e10c8800c08220008040eb00fc
:10086400014878000080fa00000006000000fa0049
:10087400e00c80000080fa00000006000200fa008c
:10088400000f78009e007800b10c8800c082200020
:100894008040eb00014878000080fa000000060068
:1008a4000000fa00b00c80000080fa00000006008e
:1008b4000000fa000080fa00000006000200fa00be
:1008c400000f780098e0a9009e007800014088009d
:1008d40098e0a8000080fa00000006000000fa007a
:1008e400c08220008040eb000148780098e0a80016
:1008f400a1e1a8000080fa00000006000000fa0050
:10090400a1e1a90098e0a9000080fa000000060017
:100914000200fa00c0822000104f78001e407800c8
:100924000004e00003003200c08220008040eb009d
:10093400014878001e4078000080fa00000006009c
:100944000000fa00d0822000104078000080fb00f4
:100954000080fa00000006000000fa00d0822000a7
:100964008040eb00014878000080fa000000060097
:100974000000fa009021ef0040c32000900c880092
:1009840000022800a00c8800104080000000e00055
:1009940002003a0020512000240007008860a900ca
:1009a4009860a800e08220008040eb0001487800b5
:1009b4000080fa00000006000200fa00000f780030
:1009c4009e007800910c8800e08220008040eb00bb
:1009d400014878000080fa00000006000000fa00d8
:1009e400900c80000080fa00000006000200fa006b
:1009f400000f78009e007800810c8800e0822000bf
:100a04008040eb00014878000080fa0000000600f6
:100a14000000fa00800c80000080fa00000006004c
:100a24000000fa000080fa00000006000200fa004c
:100a3400000f78009860a9009e007800114088009b
:100a44009860a8000080fa00000006000000fa0088
:100a5400e08220008040eb00014878009860a80004
:100a640095e1a8000080fa00000006000000fa00ea
:100a740095e1a9009860a9000080fa000000060032
:100a84000200fa00e0822000104f78001e40780037
:100a94000004e00003003200e08220008040eb000c
:100aa400014878001e4078000080fa00000006002b
:100ab4000000fa00f0822000104078000080fb0063
:100ac4000080fa00000006000000fa00f082200016
:100ad4008040eb00014878000080fa000000060026
:100ae4000000fa00a421ef00a0712b00500d880033
:100af40000022800700d8800204080000000e00003
:100b040002003a00a05c2000240007008b60a900ca
:100b14009b60a800008320008040eb00014878001f
:100b24000080fa00000006000200fa00000f7800be
:100b34009e007800510d8800008320008040eb0067
:100b4400014878000080fa00000006000000fa0066
:100b5400500d80000080fa00000006000200fa0038
:100b6400000f78009e007800210d8800008320008b
:100b74008040eb00014878000080fa000000060085
:100b84000000fa00200d80000080fa00000006003a
:100b94000000fa000080fa00000006000200fa00db
:100ba400000f78009b60a9009e0078002140880017
:100bb4009b60a8000080fa00000006000000fa0014
:100bc400008320008040eb00014878009b60a8006f
:100bd400afe1a8000080fa00000006000000fa005f
:100be400afe1a9009b60a9000080fa0000000600a4
:100bf4000200fa0000832000104f78001e407800a5
:100c04000004e00003003200008320008040eb0079
:100c1400014878001e4078000080fa0000000600b9
:100c24000000fa0010832000104078000080fb00d0
:100c34000080fa00000006000000fa001083200083
:100c44008040eb00014878000080fa0000000600b4
:100c54000000fa009a21ef00d0b82500f00c8800bb
:100c640000032800100d8800304080000000e000e0
:100c740002003a0020682000240007008900a9002f
:100c84009900a800208320008040eb0001487800f0
:100c94000080fa00000006000200fa00000f78004d
:100ca4009e007800f10c8800208320008040eb0037
:100cb400014878000080fa00000006000000fa00f5
:100cc400f00c80000080fa00000006000200fa0028
:100cd400000f78009e007800d10c8800208320004b
:100ce4008040eb00014878000080fa000000060014
:100cf4000000fa00d00c80000080fa00000006001a
:100d04000000fa000080fa00000006000200fa0069
:100d1400000f78009900a9009e00780031408800f7
:100d24009900a8000080fa00000006000000fa0004
:100d3400208320008040eb00014878009900a8003f
:100d4400a3e1a8000080fa00000006000000fa00f9
:100d5400a3e1a9009900a9000080fa0000000600a0
:100d64000200fa0020832000104f78001e40780013
:100d74000004e00003003200208320008040eb00e8
:100d8400014878001e4078000080fa000000060048
:100d94000000fa0030832000104078000080fb003f
:100da4000080fa00000006000000fa0030832000f2
:100db4008040eb00014878000080fa000000060043
:100dc4000000fa00a821ef0090bb2d00600d880000
:100dd40000022800800d8800404080000000e000f0
:100de40002003a00a0732000240007008b80a900b1
:100df4009b80a800408320008040eb0001487800dd
:100e04000080fa00000006000200fa00000f7800db
:100e14009e007800610d8800408320008040eb0034
:100e2400014878000080fa00000006000000fa0083
:100e3400600d80000080fa00000006000200fa0045
:100e4400000f78009e007800410d88004083200048
:100e54008040eb00014878000080fa0000000600a2
:100e64000000fa00400d80000080fa000000060037
:100e74000000fa000080fa00000006000200fa00f8
:100e8400000f78009b80a9009e00780041408800f4
:100e94009b80a8000080fa00000006000000fa0011
:100ea400408320008040eb00014878009b80a8002c
:100eb400b1e1a8000080fa00000006000000fa007a
:100ec400b1e1a9009b80a9000080fa00000006009f
:100ed4000200fa0040832000104f78001e40780082
:100ee4000004e00003003200408320008040eb0057
:100ef400014878001e4078000080fa0000000600d7
:100f04000000fa0050832000104078000080fb00ad
:100f14000080fa00000006000000fa005083200060
:100f24008040eb00014878000080fa0000000600d1
:100f34000000fa00003580004900de0061406000d6
:100f44000004a200614060000080fb0061006000ba
:100f54004900dd00013580000190a100010070000e
:100f6400003588000080fa00000006000000fa0046
:100f7400003580004a00de00614060000004a200e9
:100f8400614060000080fb00610060004a00dd00f9
:100f94000135800001a0a100010070000035880027
:100fa4000080fa00000006000000fa00003580000e
:100fb4004b00de00614060000004a200614060005c
:100fc4000080fb00610060004b00dd000135800003
:100fd40001b0a10001007000003588000080fa0013
:100fe400000006000000fa00203380000040780072
:100ff400614060000004a200614060000080fb00ca
:1010040061006000213380000100a1000100700034
:10101400203388000080fa00000006000000fa0077
:10102400203380000000d100614060000004a20071
:10103400614060000080fb0061006000000040002f
:10104400213380000110a1000100700020338800ca
:101054000080fa00000006000000fa00cc0007003f
:10106400a079200071fe070078fe0700807b200035
:1010740012fe070019fe0700607d200023ff070011
:101084002aff0700407f2000c4fe0700cbfe0700b4
:101094000081200079ff070080ff0700ffff370071
:1010a4000000fa006426ef007826ef008c26ef009b
:1010b400a026ef00b426ef00c826ef00dc26ef00e0
:1010c400f026ef00c06f2c00003388000080eb0096
:1010d400a0338800e001270040348800f01f2f006f
:1010e400e0348800f03f200080358800f01b2300a6
:1010f40020368800f03c2f00c03688001000200005
:10110400603788007226ef008626ef009a26ef00eb
:10111400ae26ef00c226ef00d626ef00ea26ef0047
:10112400fe26ef007026ef008426ef009826ef00dd
:10113400ac26ef00c026ef00d426ef00e826ef002f
:10114400fc26ef007226ef008626ef009a26ef00b9
:10115400ae26ef00c226ef00d626ef00ea26ef0007
:10116400fe26ef007026ef008426ef009826ef009d
:10117400ac26ef00c026ef00d426ef00e826ef00ef
:10118400fc26ef006626ef007a26ef008e26ef009d
:10119400a226ef00b626ef00ca26ef00de26ef00f7
:1011a400f226ef00000c200040338800c0ff2f001f
:1011b400e03388000001200080348800000c200007
:1011c4002035880080212000c0358800003c2000a4
:0c11d400003788000080fa0000000600d0
:020000040000fa
:1011e0002c08000002000000800000000008000041
:1011f00002000000800000002e0800000200000035
:1012000080000000020800000200000080000000d2
:101210003008000002000000800000000408000008
:101220000200000080000000320800000200000000
:10123000800000000608000002000000800000009e
:1012400034080000020000008000000008080000d0
:1012500002000000800000000c08000020000000d8
:10126000800000000a080000020000008200000068
:08127000ffff00000000000078
:020000040000fa
:101278000000fa0000002300100888000621ef0093
:101288006821ef006a21ef000c21ef000e21ef002a
:101298007821ef007c21ef007e21ef008021ef0014
:1012a8008221ef008421ef008621ef000001eb008e
:1012b80080072000a1092000131020008049780031
:1012c80081497800824978000001eb006004200021
:1012d80071052000031020008049780081497800ba
:1012e800824978000080fa00000006000000fa0039
:1012f800b105800080ff2f00008060000000a00082
:10130800b0058800a1058000f0ff2800008060007b
:1013180000c0a000a00588006105800080ff2f00a4
:10132800008060000000a000600588005105800072
:10133800f0ff28000080600000c0a0005005880071
:1013480041058000f0ff28000080600000c0a00078
:10135800400588000080fa00000006000200fa003c
:10136800000f78009e00780051408800ffff37008a
:101378000000fa00c080200080077800408220002a
:10138800000188000080fa00000006000000fa0052
:1013980042ff0700d5ff0700b5ff07002bfe070037
:1013a800cefd070085fe070014fd07006ffd07004e
:0813b8000080fa0000000600ad
:020000040000fa
:02000004000af0
:04be0000ffffff0041
:020000040000fa
:02000004000af0
:04be2000ffffff0021
:020000040000fa
:02000004000af0
:04be300078ffff0098
:020000040000fa
:02000004000af0
:04be3800b7ffff0051
:020000040000fa
:02000004000af0
:04be40009fffff0061
:020000040000fa
:02000004000af0
:04be4800ffffff00f9
:020000040000fa
:02000004000af0
:04be5000dfffff0011
:020000040000fa
:02000004000af0
:04be58000000ff00e7
:020000040000fa
:02000004000af0
:04be60000000ff00df
:020000040000fa
:02000004000af0
:04be68000000ff00d7
:020000040000fa
:02000004000af0
:04be70000000ff00cf
:020000040000fa
:02000004000af0
:04be7800ffffff00c9
:020000040000fa
:02000004000af0
:04be8000ffffff00c1
:020000040000fa
:020000040100f9
:04300000ffffff00cf
:00000001FF
